{
  "_format": "hh-sol-artifact-1",
  "contractName": "Crowdfunding",
  "sourceName": "contracts/Crowdfunding.sol",
  "abi": [
    {
      "inputs": [
        {
          "internalType": "uint256",
          "name": "",
          "type": "uint256"
        }
      ],
      "name": "campaigns",
      "outputs": [
        {
          "internalType": "address",
          "name": "owner",
          "type": "address"
        },
        {
          "internalType": "string",
          "name": "title",
          "type": "string"
        },
        {
          "internalType": "string",
          "name": "description",
          "type": "string"
        },
        {
          "internalType": "uint256",
          "name": "target",
          "type": "uint256"
        },
        {
          "internalType": "uint256",
          "name": "deadline",
          "type": "uint256"
        },
        {
          "internalType": "uint256",
          "name": "amountCollected",
          "type": "uint256"
        },
        {
          "internalType": "string",
          "name": "image",
          "type": "string"
        },
        {
          "internalType": "bool",
          "name": "paidOut",
          "type": "bool"
        }
      ],
      "stateMutability": "view",
      "type": "function"
    },
    {
      "inputs": [
        {
          "internalType": "address",
          "name": "_owner",
          "type": "address"
        },
        {
          "internalType": "string",
          "name": "_title",
          "type": "string"
        },
        {
          "internalType": "string",
          "name": "_description",
          "type": "string"
        },
        {
          "internalType": "uint256",
          "name": "_target",
          "type": "uint256"
        },
        {
          "internalType": "uint256",
          "name": "_deadline",
          "type": "uint256"
        },
        {
          "internalType": "string",
          "name": "_image",
          "type": "string"
        }
      ],
      "name": "createCampaign",
      "outputs": [
        {
          "internalType": "uint256",
          "name": "",
          "type": "uint256"
        }
      ],
      "stateMutability": "nonpayable",
      "type": "function"
    },
    {
      "inputs": [
        {
          "internalType": "uint256",
          "name": "_id",
          "type": "uint256"
        }
      ],
      "name": "donateToCampaign",
      "outputs": [],
      "stateMutability": "payable",
      "type": "function"
    },
    {
      "inputs": [],
      "name": "getCampaigns",
      "outputs": [
        {
          "components": [
            {
              "internalType": "address",
              "name": "owner",
              "type": "address"
            },
            {
              "internalType": "string",
              "name": "title",
              "type": "string"
            },
            {
              "internalType": "string",
              "name": "description",
              "type": "string"
            },
            {
              "internalType": "uint256",
              "name": "target",
              "type": "uint256"
            },
            {
              "internalType": "uint256",
              "name": "deadline",
              "type": "uint256"
            },
            {
              "internalType": "uint256",
              "name": "amountCollected",
              "type": "uint256"
            },
            {
              "internalType": "string",
              "name": "image",
              "type": "string"
            },
            {
              "internalType": "address[]",
              "name": "donators",
              "type": "address[]"
            },
            {
              "internalType": "uint256[]",
              "name": "donations",
              "type": "uint256[]"
            },
            {
              "internalType": "bool",
              "name": "paidOut",
              "type": "bool"
            }
          ],
          "internalType": "struct Crowdfunding.Campaign[]",
          "name": "",
          "type": "tuple[]"
        }
      ],
      "stateMutability": "view",
      "type": "function"
    },
    {
      "inputs": [
        {
          "internalType": "uint256",
          "name": "_id",
          "type": "uint256"
        }
      ],
      "name": "getDonators",
      "outputs": [
        {
          "internalType": "address[]",
          "name": "",
          "type": "address[]"
        },
        {
          "internalType": "uint256[]",
          "name": "",
          "type": "uint256[]"
        }
      ],
      "stateMutability": "view",
      "type": "function"
    },
    {
      "inputs": [],
      "name": "numberOfCampaigns",
      "outputs": [
        {
          "internalType": "uint256",
          "name": "",
          "type": "uint256"
        }
      ],
      "stateMutability": "view",
      "type": "function"
    },
    {
      "inputs": [
        {
          "internalType": "uint256",
          "name": "_id",
          "type": "uint256"
        }
      ],
      "name": "payoutToOwner",
      "outputs": [],
      "stateMutability": "nonpayable",
      "type": "function"
    }
  ],
  "bytecode": "0x6080604052600060015534801561001557600080fd5b5061116a806100256000396000f3fe6080604052600436106100705760003560e01c806342a4fda81161004e57806342a4fda8146101005780639943e3a114610115578063a6b0363314610135578063da3eac051461015757600080fd5b806307ca140d146100755780630fa91fa91461009e578063141961bc146100cc575b600080fd5b34801561008157600080fd5b5061008b60015481565b6040519081526020015b60405180910390f35b3480156100aa57600080fd5b506100be6100b9366004610b2d565b610177565b604051610095929190610b46565b3480156100d857600080fd5b506100ec6100e7366004610b2d565b610246565b604051610095989796959493929190610c10565b61011361010e366004610b2d565b61042c565b005b34801561012157600080fd5b5061008b610130366004610d2a565b6104ec565b34801561014157600080fd5b5061014a610594565b6040516100959190610e59565b34801561016357600080fd5b50610113610172366004610b2d565b610952565b600081815260208181526040918290206007810180548451818502810185019095528085526060948594929360080192909184918301828280156101e457602002820191906000526020600020905b81546001600160a01b031681526001909101906020018083116101c6575b505050505091508080548060200260200160405190810160405280929190818152602001828054801561023657602002820191906000526020600020905b815481526020019060010190808311610222575b5050505050905091509150915091565b600060208190529081526040902080546001820180546001600160a01b03909216929161027290610f7f565b80601f016020809104026020016040519081016040528092919081815260200182805461029e90610f7f565b80156102eb5780601f106102c0576101008083540402835291602001916102eb565b820191906000526020600020905b8154815290600101906020018083116102ce57829003601f168201915b50505050509080600201805461030090610f7f565b80601f016020809104026020016040519081016040528092919081815260200182805461032c90610f7f565b80156103795780601f1061034e57610100808354040283529160200191610379565b820191906000526020600020905b81548152906001019060200180831161035c57829003601f168201915b5050505050908060030154908060040154908060050154908060060180546103a090610f7f565b80601f01602080910402602001604051908101604052809291908181526020018280546103cc90610f7f565b80156104195780601f106103ee57610100808354040283529160200191610419565b820191906000526020600020905b8154815290600101906020018083116103fc57829003601f168201915b5050506009909301549192505060ff1688565b6000818152602081905260409020600481015434919042106104955760405162461bcd60e51b815260206004820152601760248201527f54686520646561646c696e65206861732070617373656400000000000000000060448201526064015b60405180910390fd5b600781018054600181810183556000928352602080842090920180546001600160a01b031916331790556008840180549182018155835291200182905560058101546104e2908390610fc9565b6005909101555050565b60018054600090815260208190526040812080546001600160a01b0319166001600160a01b038a16178155909181016105258882611032565b50600281016105348782611032565b50600381018590556004810184905560006005820155600681016105588482611032565b5060098101805460ff1916905560018054906000610575836110f2565b919050555060018054610588919061110b565b98975050505050505050565b6060600060015467ffffffffffffffff8111156105b3576105b3610c87565b60405190808252806020026020018201604052801561064557816020015b61063260405180610140016040528060006001600160a01b0316815260200160608152602001606081526020016000815260200160008152602001600081526020016060815260200160608152602001606081526020016000151581525090565b8152602001906001900390816105d15790505b50905060005b60015481101561094c57600081815260208181526040918290208251610140810190935280546001600160a01b031683526001810180549193928492908401919061069590610f7f565b80601f01602080910402602001604051908101604052809291908181526020018280546106c190610f7f565b801561070e5780601f106106e35761010080835404028352916020019161070e565b820191906000526020600020905b8154815290600101906020018083116106f157829003601f168201915b5050505050815260200160028201805461072790610f7f565b80601f016020809104026020016040519081016040528092919081815260200182805461075390610f7f565b80156107a05780601f10610775576101008083540402835291602001916107a0565b820191906000526020600020905b81548152906001019060200180831161078357829003601f168201915b505050505081526020016003820154815260200160048201548152602001600582015481526020016006820180546107d790610f7f565b80601f016020809104026020016040519081016040528092919081815260200182805461080390610f7f565b80156108505780601f1061082557610100808354040283529160200191610850565b820191906000526020600020905b81548152906001019060200180831161083357829003601f168201915b50505050508152602001600782018054806020026020016040519081016040528092919081815260200182805480156108b257602002820191906000526020600020905b81546001600160a01b03168152600190910190602001808311610894575b505050505081526020016008820180548060200260200160405190810160405280929190818152602001828054801561090a57602002820191906000526020600020905b8154815260200190600101908083116108f6575b50505091835250506009919091015460ff16151560209091015283518490849081106109385761093861111e565b60209081029190910101525060010161064b565b50919050565b600081815260208190526040902080546001600160a01b031633146109c95760405162461bcd60e51b815260206004820152602760248201527f596f7520617265206e6f7420746865206f776e6572206f66207468697320636160448201526636b830b4b3b71760c91b606482015260840161048c565b8060040154421015610a1d5760405162461bcd60e51b815260206004820181905260248201527f54686520646561646c696e6520686173206e6f7420796574207061737365642e604482015260640161048c565b600981015460ff1615610a7c5760405162461bcd60e51b815260206004820152602160248201527f46756e6473206861766520616c7265616479206265656e2070616964206f75746044820152601760f91b606482015260840161048c565b60098101805460ff19166001179055805460058201546040516000926001600160a01b031691908381818185875af1925050503d8060008114610adb576040519150601f19603f3d011682016040523d82523d6000602084013e610ae0565b606091505b5050905080610b285760405162461bcd60e51b81526020600482015260146024820152734661696c656420746f2073656e642066756e647360601b604482015260640161048c565b505050565b600060208284031215610b3f57600080fd5b5035919050565b604080825283519082018190526000906020906060840190828701845b82811015610b885781516001600160a01b031684529284019290840190600101610b63565b5050508381038285015284518082528583019183019060005b81811015610bbd57835183529284019291840191600101610ba1565b5090979650505050505050565b6000815180845260005b81811015610bf057602081850181015186830182015201610bd4565b506000602082860101526020601f19601f83011685010191505092915050565b6001600160a01b038916815261010060208201819052600090610c358382018b610bca565b90508281036040840152610c49818a610bca565b90508760608401528660808401528560a084015282810360c0840152610c6f8186610bca565b91505082151560e08301529998505050505050505050565b634e487b7160e01b600052604160045260246000fd5b600082601f830112610cae57600080fd5b813567ffffffffffffffff80821115610cc957610cc9610c87565b604051601f8301601f19908116603f01168101908282118183101715610cf157610cf1610c87565b81604052838152866020858801011115610d0a57600080fd5b836020870160208301376000602085830101528094505050505092915050565b60008060008060008060c08789031215610d4357600080fd5b86356001600160a01b0381168114610d5a57600080fd5b9550602087013567ffffffffffffffff80821115610d7757600080fd5b610d838a838b01610c9d565b96506040890135915080821115610d9957600080fd5b610da58a838b01610c9d565b9550606089013594506080890135935060a0890135915080821115610dc957600080fd5b50610dd689828a01610c9d565b9150509295509295509295565b60008151808452602080850194506020840160005b83811015610e1d5781516001600160a01b031687529582019590820190600101610df8565b509495945050505050565b60008151808452602080850194506020840160005b83811015610e1d57815187529582019590820190600101610e3d565b600060208083018184528085518083526040925060408601915060408160051b87010184880160005b83811015610f7157888303603f19018552815180516001600160a01b0316845261014088820151818a870152610eba82870182610bca565b9150508782015185820389870152610ed28282610bca565b606084810151908801526080808501519088015260a0808501519088015260c080850151888303828a01529193509150610f0c8382610bca565b9250505060e08083015186830382880152610f278382610de3565b925050506101008083015186830382880152610f438382610e28565b92505050610120808301519250610f5d8187018415159052565b509588019593505090860190600101610e82565b509098975050505050505050565b600181811c90821680610f9357607f821691505b60208210810361094c57634e487b7160e01b600052602260045260246000fd5b634e487b7160e01b600052601160045260246000fd5b80820180821115610fdc57610fdc610fb3565b92915050565b601f821115610b28576000816000526020600020601f850160051c8101602086101561100b5750805b601f850160051c820191505b8181101561102a57828155600101611017565b505050505050565b815167ffffffffffffffff81111561104c5761104c610c87565b6110608161105a8454610f7f565b84610fe2565b602080601f831160018114611095576000841561107d5750858301515b600019600386901b1c1916600185901b17855561102a565b600085815260208120601f198616915b828110156110c4578886015182559484019460019091019084016110a5565b50858210156110e25787850151600019600388901b60f8161c191681555b5050505050600190811b01905550565b60006001820161110457611104610fb3565b5060010190565b81810381811115610fdc57610fdc610fb3565b634e487b7160e01b600052603260045260246000fdfea2646970667358221220729e24eb9a555b413f1a3b61533d8ccb1110d1483bcfb781c08e4ee305011a2864736f6c63430008170033",
  "linkReferences": {},
  "deployedLinkReferences": {}
}